{
  "contractName": "CrowdFunding",
  "abi": [
    {
      "constant": true,
      "inputs": [
        {
          "name": "",
          "type": "uint256"
        }
      ],
      "name": "Transactions",
      "outputs": [
        {
          "name": "TId",
          "type": "uint256"
        },
        {
          "name": "Creditor",
          "type": "address"
        },
        {
          "name": "TAmount",
          "type": "uint256"
        },
        {
          "name": "StartDate",
          "type": "uint256"
        },
        {
          "name": "Maturity",
          "type": "uint256"
        },
        {
          "name": "InterestRate",
          "type": "uint256"
        },
        {
          "name": "Default",
          "type": "bool"
        },
        {
          "name": "Compensation",
          "type": "uint256"
        },
        {
          "name": "CurrentTime",
          "type": "uint256"
        }
      ],
      "payable": false,
      "stateMutability": "view",
      "type": "function",
      "signature": "0x34008b16"
    },
    {
      "constant": true,
      "inputs": [],
      "name": "AccountCount",
      "outputs": [
        {
          "name": "",
          "type": "uint256"
        }
      ],
      "payable": false,
      "stateMutability": "view",
      "type": "function",
      "signature": "0x34ab9fc8"
    },
    {
      "constant": true,
      "inputs": [
        {
          "name": "",
          "type": "uint256"
        }
      ],
      "name": "TranCountNum",
      "outputs": [
        {
          "name": "",
          "type": "uint256"
        }
      ],
      "payable": false,
      "stateMutability": "view",
      "type": "function",
      "signature": "0x78490437"
    },
    {
      "constant": true,
      "inputs": [
        {
          "name": "",
          "type": "uint256"
        }
      ],
      "name": "addressCount",
      "outputs": [
        {
          "name": "",
          "type": "address"
        }
      ],
      "payable": false,
      "stateMutability": "view",
      "type": "function",
      "signature": "0xb37ab09b"
    },
    {
      "constant": true,
      "inputs": [],
      "name": "TranCount",
      "outputs": [
        {
          "name": "",
          "type": "uint256"
        }
      ],
      "payable": false,
      "stateMutability": "view",
      "type": "function",
      "signature": "0xbc185433"
    },
    {
      "constant": true,
      "inputs": [
        {
          "name": "",
          "type": "address"
        }
      ],
      "name": "Accounts",
      "outputs": [
        {
          "name": "UId",
          "type": "uint256"
        },
        {
          "name": "Name",
          "type": "string"
        },
        {
          "name": "TranCount",
          "type": "uint256"
        },
        {
          "name": "DefaultCount",
          "type": "uint256"
        },
        {
          "name": "Amount",
          "type": "uint256"
        },
        {
          "name": "Rating",
          "type": "uint256"
        },
        {
          "name": "Comments",
          "type": "string"
        },
        {
          "name": "minRating",
          "type": "uint256"
        },
        {
          "name": "Status",
          "type": "bool"
        }
      ],
      "payable": false,
      "stateMutability": "view",
      "type": "function",
      "signature": "0xe203b506"
    },
    {
      "inputs": [],
      "payable": false,
      "stateMutability": "nonpayable",
      "type": "constructor",
      "signature": "constructor"
    }
  ],
  "bytecode": "0x60806040526000600255600060035560646040519080825280602002602001820160405280156200003f5781602001602082028038833980820191505090505b50600490805190602001906200005792919062000656565b506064604051908082528060200260200182016040528015620000895781602001602082028038833980820191505090505b5060059080519060200190620000a1929190620006e5565b50348015620000af57600080fd5b506200011473e701309d31ffba4b80ee1fe90fc4864b41ac42cb6040805190810160405280600981526020017f4163636f756e742041000000000000000000000000000000000000000000000081525062000197640100000000026401000000009004565b6200017873519209ef10a46cc8234e0199a440635d3fba0d266040805190810160405280600981526020017f4163636f756e742042000000000000000000000000000000000000000000000081525062000197640100000000026401000000009004565b6200019162000367640100000000026401000000009004565b6200082c565b600260008154809291906001019190505550816004600254815481101515620001bc57fe5b9060005260206000200160006101000a81548173ffffffffffffffffffffffffffffffffffffffff021916908373ffffffffffffffffffffffffffffffffffffffff1602179055506101206040519081016040528060025481526020018281526020016000815260200160008152602001612710815260200161138881526020016040805190810160405280600481526020017f746573740000000000000000000000000000000000000000000000000000000081525081526020016107d08152602001600015158152506000808473ffffffffffffffffffffffffffffffffffffffff1673ffffffffffffffffffffffffffffffffffffffff168152602001908152602001600020600082015181600001556020820151816001019080519060200190620002ed92919062000737565b5060408201518160020155606082015181600301556080820151816004015560a0820151816005015560c08201518160060190805190602001906200033492919062000737565b5060e082015181600701556101008201518160080160006101000a81548160ff0219169083151502179055509050505050565b60008090505b6005805490508110156200051757600080600160006005858154811015156200039257fe5b9060005260206000200154815260200190815260200160002060010160009054906101000a900473ffffffffffffffffffffffffffffffffffffffff1673ffffffffffffffffffffffffffffffffffffffff1673ffffffffffffffffffffffffffffffffffffffff1681526020019081526020016000206002016000815480929190600101919050555060011515600160006005848154811015156200043457fe5b9060005260206000200154815260200190815260200160002060070160009054906101000a900460ff16151514156200050957600080600160006005858154811015156200047e57fe5b9060005260206000200154815260200190815260200160002060010160009054906101000a900473ffffffffffffffffffffffffffffffffffffffff1673ffffffffffffffffffffffffffffffffffffffff1673ffffffffffffffffffffffffffffffffffffffff168152602001908152602001600020600301600081548092919060010191905055505b80806001019150506200036d565b5060008090505b6004805490508110156200065357600080600160006005858154811015156200054357fe5b9060005260206000200154815260200190815260200160002060010160009054906101000a900473ffffffffffffffffffffffffffffffffffffffff1673ffffffffffffffffffffffffffffffffffffffff1673ffffffffffffffffffffffffffffffffffffffff168152602001908152602001600020600301546103e8026107d003600080600484815481101515620005d957fe5b9060005260206000200160009054906101000a900473ffffffffffffffffffffffffffffffffffffffff1673ffffffffffffffffffffffffffffffffffffffff1673ffffffffffffffffffffffffffffffffffffffff1681526020019081526020016000206005018190555080806001019150506200051e565b50565b828054828255906000526020600020908101928215620006d2579160200282015b82811115620006d15782518260006101000a81548173ffffffffffffffffffffffffffffffffffffffff021916908373ffffffffffffffffffffffffffffffffffffffff1602179055509160200191906001019062000677565b5b509050620006e19190620007be565b5090565b82805482825590600052602060002090810192821562000724579160200282015b828111156200072357825182559160200191906001019062000706565b5b50905062000733919062000804565b5090565b828054600181600116156101000203166002900490600052602060002090601f016020900481019282601f106200077a57805160ff1916838001178555620007ab565b82800160010185558215620007ab579182015b82811115620007aa5782518255916020019190600101906200078d565b5b509050620007ba919062000804565b5090565b6200080191905b80821115620007fd57600081816101000a81549073ffffffffffffffffffffffffffffffffffffffff021916905550600101620007c5565b5090565b90565b6200082991905b80821115620008255760008160009055506001016200080b565b5090565b90565b61065e806200083c6000396000f3fe608060405260043610610078576000357c0100000000000000000000000000000000000000000000000000000000900463ffffffff16806334008b161461007d57806334ab9fc814610134578063784904371461015f578063b37ab09b146101ae578063bc18543314610229578063e203b50614610254575b600080fd5b34801561008957600080fd5b506100b6600480360360208110156100a057600080fd5b81019080803590602001909291905050506103bf565b604051808a81526020018973ffffffffffffffffffffffffffffffffffffffff1673ffffffffffffffffffffffffffffffffffffffff16815260200188815260200187815260200186815260200185815260200184151515158152602001838152602001828152602001995050505050505050505060405180910390f35b34801561014057600080fd5b5061014961043a565b6040518082815260200191505060405180910390f35b34801561016b57600080fd5b506101986004803603602081101561018257600080fd5b8101908080359060200190929190505050610440565b6040518082815260200191505060405180910390f35b3480156101ba57600080fd5b506101e7600480360360208110156101d157600080fd5b8101908080359060200190929190505050610463565b604051808273ffffffffffffffffffffffffffffffffffffffff1673ffffffffffffffffffffffffffffffffffffffff16815260200191505060405180910390f35b34801561023557600080fd5b5061023e6104a1565b6040518082815260200191505060405180910390f35b34801561026057600080fd5b506102a36004803603602081101561027757600080fd5b81019080803573ffffffffffffffffffffffffffffffffffffffff1690602001909291905050506104a7565b604051808a815260200180602001898152602001888152602001878152602001868152602001806020018581526020018415151515815260200183810383528b818151815260200191508051906020019080838360005b838110156103155780820151818401526020810190506102fa565b50505050905090810190601f1680156103425780820380516001836020036101000a031916815260200191505b50838103825286818151815260200191508051906020019080838360005b8381101561037b578082015181840152602081019050610360565b50505050905090810190601f1680156103a85780820380516001836020036101000a031916815260200191505b509b50505050505050505050505060405180910390f35b60016020528060005260406000206000915090508060000154908060010160009054906101000a900473ffffffffffffffffffffffffffffffffffffffff16908060030154908060040154908060050154908060060154908060070160009054906101000a900460ff16908060080154908060090154905089565b60025481565b60058181548110151561044f57fe5b906000526020600020016000915090505481565b60048181548110151561047257fe5b906000526020600020016000915054906101000a900473ffffffffffffffffffffffffffffffffffffffff1681565b60035481565b6000602052806000526040600020600091509050806000015490806001018054600181600116156101000203166002900480601f0160208091040260200160405190810160405280929190818152602001828054600181600116156101000203166002900480156105595780601f1061052e57610100808354040283529160200191610559565b820191906000526020600020905b81548152906001019060200180831161053c57829003601f168201915b505050505090806002015490806003015490806004015490806005015490806006018054600181600116156101000203166002900480601f01602080910402602001604051908101604052809291908181526020018280546001816001161561010002031660029004801561060f5780601f106105e45761010080835404028352916020019161060f565b820191906000526020600020905b8154815290600101906020018083116105f257829003601f168201915b5050505050908060070154908060080160009054906101000a900460ff1690508956fea165627a7a72305820c7242aa0416b10d9185b0d54cc49a5f9c5aef8f8d81c8f9d171198042ecabd550029",
  "source": "pragma solidity ^0.5.0;\n\ncontract CrowdFunding{\n\t//Model an account\n\tstruct Account {\n\t\tuint UId;\n\t\tstring Name;\n\t\tuint TranCount;\n\t\tuint DefaultCount;\n\t\tuint Amount;\n\t\tuint Rating;\n\t\tstring Comments;\n\t\tuint minRating;\n\t\tbool Status;\n\t}\n\tmapping(address => Account) public Accounts;\n\t//Model a transaction\n\tstruct Transaction {\n\t\tuint TId;\n\t\taddress Creditor;\n\t\taddress[] Debtors;\n\t\tuint TAmount;\n\t\tuint StartDate;\n\t\tuint Maturity;\n\t\tuint InterestRate;\n\t\tbool Default;\n\t\tuint Compensation;\n\t\tuint CurrentTime;\n\t}\n\n\tmapping(uint => Transaction) public Transactions;\n\n\t//Add a new account\n\tuint public AccountCount = 0;\n\tuint public TranCount = 0;\n\taddress[] public addressCount = new address[](100);\n\tuint[] public TranCountNum = new uint[](100);\n\n\n\tfunction addAccount (address _address, string memory _name) private {\n\t\tAccountCount ++;\n\t\taddressCount[AccountCount] = _address;\n\t\tAccounts[_address] = Account(AccountCount, _name, 0, 0, 10000, 5000, \"test\", 2000, false);\n\t}\n\t//Apply fund\n\tfunction applyFund (address _address, uint _amount) private{\n\t\t//Function called address should be the same as Creditor Address\n\t\t//require(_address == msg.sender);\n\n\t\t//Applying amount should be lower than maximum\n\t\trequire(_amount <= 2000 * 2.72 ^ (Accounts[_address].Rating/1000) && _amount > 0);\n\n\t\t//One account can only have one transaction at the same time\n\t\trequire(Accounts[_address].Status == false);\n\t\t//Go through all the current account\n\t\t// address[] memory Debtors = new address[](100);\n\t\tuint IR = Accounts[_address].Rating + 274000;\n\t\t//Initialize the transaction info\n\t\tTranCount ++;\n\t\tTransactions[TranCount] = Transaction(TranCount, _address, new address[](100), _amount, now, 12, IR, true, 1000, 1);\n\t\tTranCountNum.push(TranCount);\n\t\t//Find out the number of suitable debtors\n\t\tTransactions[TranCount].Debtors.push(address(0x519209ef10A46cC8234E0199a440635D3Fba0d26));\n\t\tuint t = 0;\n\t\t// Transactions[TranCount].Debtors = new address[](100);\n\t\tfor (uint i = 1; i <= AccountCount; i++) {\n\n\t\t\tif (Accounts[addressCount[i]].minRating <= Accounts[_address].Rating && Accounts[addressCount[i]].Amount >= _amount){\n\t\t\t\tt ++;\n\t\t\t\t//Transactions[TranCount].Debtors.push(addressCount[i]);\n\t\t\t\tAccounts[addressCount[i]].Amount = Accounts[addressCount[i]].Amount - _amount;\n\t\t\t\tAccounts[_address].Amount = Accounts[_address].Amount + _amount;\n\t\t\t}\n\t\t}\n\t\tuint Allamount = _amount * t;\n\t\t//uint eachDebt = _amount / t;\n\t\t//Add the value\n\t\t//for (uint i = 1; i < AccountCount; i++) {\n\t\t//\tif (Accounts[addressCount[i]].minRating <= Accounts[_address].Rating ){\n\t\t//\t\tAccounts[addressCount[i]].Amount = Accounts[addressCount[i]].Amount - eachDebt;\n\t\t//\t\tAccounts[_address].Amount = Accounts[_address].Amount + eachDebt;\n\t\t//\t}\n\t\t//}\n\t\t//Change the account status\n\t\tTransactions[TranCount].TAmount = Allamount;\n\t\tAccounts[_address].Status = true;\n\t\t\n\t\t\n\t}\n\n\t//Update accounts information\n\tfunction updateAccounts () private {\n\t\t//Update Trancount and DefaultCount\n\t\tfor (uint i = 0 ; i < TranCountNum.length; i++){\n\t\t\tAccounts[Transactions[TranCountNum[i]].Creditor].TranCount ++;\n\t\t\tif (Transactions[TranCountNum[i]].Default == true){\n\t\t\t\tAccounts[Transactions[TranCountNum[i]].Creditor].DefaultCount ++;\n\t\t\t}\n\t\t}\n\t\t//Update Rating\n\t\tfor (uint i = 0; i < addressCount.length; i++){\n\t\t\tAccounts[addressCount[i]].Rating = 2000 - (1000 * Accounts[Transactions[TranCountNum[i]].Creditor].DefaultCount);\n\t\t\t// + Accounts[Transactions[TranCountNum[i]].Creditor].TranCount;\n\t\t}\n\n\t}\n\t//Pay back money\n\tfunction Payback() private {\n\t\t//Acount should be in a transaction now\n\t\trequire(Accounts[msg.sender].Status == true);\n\t\t//Find out the particular transaction\n\t\tuint TransactionID;\n\t\tfor (uint i = 0 ; i < TranCountNum.length; i++){\n\t\t\tif (Transactions[TranCountNum[i]].Creditor == msg.sender){\n\t\t\t\tTransactionID = TranCountNum[i];\n\t\t\t\tbreak;\n\t\t\t}\n\t\t}\n\t\tuint TAmount = Transactions[TransactionID].TAmount;\n\t\tuint MonthlyInterest = Transactions[TransactionID].TAmount * Transactions[TransactionID].InterestRate/1000000;\n\t\t//uint IR = Transactions[TransactionID].InterestRate;\n\t\t//ParValue = TAmount * ((1 + (100+IR)/100) ^ Maturity);\n\t\t//Calculate the coupon and par value\n\t\t//Make decision if it's in the maturity or on par\n\t\tif (Transactions[TransactionID].CurrentTime < 12){\n\t\t\tif (Accounts[msg.sender].Amount < MonthlyInterest){\n\t\t\t\tTransactions[TransactionID].Default = true;\n\t\t\t//Compensation\n\t\t\t}\n\t\t\telse {\n\t\t\tAccounts[msg.sender].Amount = Accounts[msg.sender].Amount - MonthlyInterest;\n\t\t\t\tfor (uint i = 0; i < Transactions[TransactionID].Debtors.length; i++){\n\t\t\t\tAccounts[Transactions[TransactionID].Debtors[i]].Amount = Accounts[Transactions[TransactionID].Debtors[i]].Amount + MonthlyInterest/Transactions[TransactionID].Debtors.length;\n\t\t\t\t}\n\t\t\t//Miss the deadline -- Default but still payback\n\t\t\t\tif (now > Transactions[TransactionID].StartDate + Transactions[TransactionID].CurrentTime * 1 minutes){\n\t\t\t\tTransactions[TransactionID].Default = true;\n\t\t\t\t//compensation\n\t\t\t\t}\n\t\t\t\telse {\n\t\t\t\tTransactions[TransactionID].Default = false;\n\t\t\t\t}\n\t\t\t}\n\t\t\tTransactions[TransactionID].CurrentTime = Transactions[TransactionID].CurrentTime + 1;\n\n\t\t}\n\t\telse if (Transactions[TransactionID].CurrentTime == 12) {\n\t\t\tif (Accounts[msg.sender].Amount < TAmount + MonthlyInterest){\n\t\t\t\tTransactions[TransactionID].Default = true;\n\t\t\t//Compensation\n\t\t\t}\n\t\t\telse {\n\t\t\tAccounts[msg.sender].Amount = Accounts[msg.sender].Amount - MonthlyInterest - TAmount;\n\t\t\t\tfor (uint i = 0; i < Transactions[TransactionID].Debtors.length; i++){\n\t\t\t\tAccounts[Transactions[TransactionID].Debtors[i]].Amount = Accounts[Transactions[TransactionID].Debtors[i]].Amount + (MonthlyInterest+TAmount)/Transactions[TransactionID].Debtors.length;\n\t\t\t\t}\n\t\t\t//Miss the deadline -- Default but still payback\n\t\t\t\tif (now > Transactions[TransactionID].StartDate + Transactions[TransactionID].CurrentTime * 1 minutes){\n\t\t\t\tTransactions[TransactionID].Default = true;\n\t\t\t\t//compensation\n\t\t\t\t}\n\t\t\t\telse {\n\t\t\t\tTransactions[TransactionID].Default = false;\n\t\t\t\t}\n\t\t\t}\n\t\t\tTransactions[TransactionID].CurrentTime = 1;\n\t\t}\n\t\t//Payback money\n\t\t//No enough money -- Default\n\t\t//if (Accounts[msg.sender].Amount < ParValue){\n\t\t//\tTransactions[TransactionID].Default = true;\n\t\t//\t//Compensation\n\t\t//}\n\t\t//else {\n\t\t//\tAccounts[msg.sender].Amount = Accounts[msg.sender].Amount - ParValue;\n\t\t//\tfor (uint i = 0; i < Transactions[TransactionID].Debtors.length; i++){\n\t\t//\t\tAccounts[Transactions[TransactionID].Debtors[i]].Amount = Accounts[Transactions[TransactionID].Debtors[i]].Amount + ParValue/Transactions[TransactionID].Debtors.length;\n\t\t//\t}\n\t\t//\t//Miss the deadline -- Default but still payback\n\t\t//\tif (now > Transactions[TransactionID].StartDate + Maturity * 1 minutes){\n\t\t//\t\tTransactions[TransactionID].Default = true;\n\t\t//\t\t//compensation\n\t\t//\t}\n\t\t//\telse {\n\t\t//\t\tTransactions[TransactionID].Default = false;\n\t\t//\t}\n\t\t//}\n\t}\n\t\n\tconstructor() public {\n\t\t//addAccount(\"Account 1\");\n\t\t//addAccount(\"Account 2\");\n\t\taddAccount(address(0xE701309D31FfBA4B80eE1FE90fC4864b41ac42Cb), 'Account A');\n\t\taddAccount(address(0x519209ef10A46cC8234E0199a440635D3Fba0d26), 'Account B');\n\t\t// applyFund(address(0xE701309D31FfBA4B80eE1FE90fC4864b41ac42Cb), 100);\n\t\tupdateAccounts();\n\t\t// Payback();\n\t\t//addAccount(0xaef0B7Edd5D2E9315027ADFA4642E16a5c85Afd8, 'Account C');\n\t\t\n\t}\n}",
  "sourcePath": "/Users/YANG/B2BCrowdFunding/contracts/CrowdFunding.sol",
  "compiler": {
    "name": "solc",
    "version": "0.5.0+commit.1d4f565a.Emscripten.clang"
  },
  "schemaVersion": "3.0.2",
  "updatedAt": "2019-04-28T05:52:42.053Z",
  "devdoc": {
    "methods": {}
  },
  "userdoc": {
    "methods": {}
  }
}